:020000040000fa
:080000000002040000000000f2
:020000040000fa
:040008002e030000c3
:020000040000fa
:04000c0034030000b9
:020000040000fa
:04001000d203000017
:020000040000fa
:040014003a030000ab
:020000040000fa
:0400180040030000a1
:020000040000fa
:04001c004603000097
:020000040000fa
:04002000d203000007
:020000040000fa
:04002400d203000003
:020000040000fa
:04002800d2030000ff
:020000040000fa
:04002c00d2030000fb
:020000040000fa
:04003000d2030000f7
:020000040000fa
:040034004c03000079
:020000040000fa
:04003800840300003d
:020000040000fa
:04003c00d2030000eb
:020000040000fa
:04004000d2030000e7
:020000040000fa
:04004400680300004d
:020000040000fa
:04004800d2030000df
:020000040000fa
:04004c00d2030000db
:020000040000fa
:04005000d2030000d7
:020000040000fa
:040054004a4400001a
:020000040000fa
:0400580070440000f0
:020000040000fa
:04005c00d2030000cb
:020000040000fa
:04006000ba030000df
:020000040000fa
:04006400d2030000c3
:020000040000fa
:04006800d2030000bf
:020000040000fa
:04006c005a480000ee
:020000040000fa
:04007000d2030000b7
:020000040000fa
:04007400d2030000b3
:020000040000fa
:04007800d2030000af
:020000040000fa
:04007c00d2030000ab
:020000040000fa
:04008000d2030000a7
:020000040000fa
:04008400d2030000a3
:020000040000fa
:04008800c2030000af
:020000040000fa
:04008c00d20300009b
:020000040000fa
:04009000d203000097
:020000040000fa
:04009400d203000093
:020000040000fa
:04009800d20300008f
:020000040000fa
:04009c00d20300008b
:020000040000fa
:0400a000d203000087
:020000040000fa
:0400a400d203000083
:020000040000fa
:0400a800d20300007f
:020000040000fa
:0400ac00d20300007b
:020000040000fa
:0400b000d203000077
:020000040000fa
:0400b4006c270000b5
:020000040000fa
:0400b800ca03000077
:020000040000fa
:0400bc00d20300006b
:020000040000fa
:0400c000d203000067
:020000040000fa
:0400c400d203000063
:020000040000fa
:0400c800d20300005f
:020000040000fa
:0400cc00d20300005b
:020000040000fa
:0400d000d203000057
:020000040000fa
:0400d400d203000053
:020000040000fa
:0400d800d20300004f
:020000040000fa
:0400dc00d20300004b
:020000040000fa
:0400e000d203000047
:020000040000fa
:0400e400d203000043
:020000040000fa
:0400e800d20300003f
:020000040000fa
:0400ec00d20300003b
:020000040000fa
:0400f000d203000037
:020000040000fa
:0400f400d203000033
:020000040000fa
:0400f800d20300002f
:020000040000fa
:0400fc00d20300002b
:020000040000fa
:04010000d203000026
:020000040000fa
:04010400d203000022
:020000040000fa
:04010800d20300001e
:020000040000fa
:04010c00d20300001a
:020000040000fa
:04011000d203000016
:020000040000fa
:04011400d203000012
:020000040000fa
:04011800d20300000e
:020000040000fa
:04011c00d20300000a
:020000040000fa
:04012000d203000006
:020000040000fa
:04012400d203000002
:020000040000fa
:04012800d2030000fe
:020000040000fa
:04012c00d2030000fa
:020000040000fa
:04013000d2030000f6
:020000040000fa
:04013400d2030000f2
:020000040000fa
:04013800d2030000ee
:020000040000fa
:04013c00d2030000ea
:020000040000fa
:04014000d2030000e6
:020000040000fa
:04014400d2030000e2
:020000040000fa
:04014800d2030000de
:020000040000fa
:04014c00d2030000da
:020000040000fa
:04015000d2030000d6
:020000040000fa
:04015400d2030000d2
:020000040000fa
:04015800d2030000ce
:020000040000fa
:04015c00d2030000ca
:020000040000fa
:04016000d2030000c6
:020000040000fa
:04016400d2030000c2
:020000040000fa
:04016800d2030000be
:020000040000fa
:04016c00d2030000ba
:020000040000fa
:04017000d2030000b6
:020000040000fa
:04017400d2030000b2
:020000040000fa
:04017800d2030000ae
:020000040000fa
:04017c00d2030000aa
:020000040000fa
:04018000d2030000a6
:020000040000fa
:04018400d2030000a2
:020000040000fa
:04018800d20300009e
:020000040000fa
:04018c00d20300009a
:020000040000fa
:04019000d203000096
:020000040000fa
:04019400d203000092
:020000040000fa
:04019800d20300008e
:020000040000fa
:04019c00d20300008a
:020000040000fa
:0401a000d203000086
:020000040000fa
:0401a400d203000082
:020000040000fa
:0401a800d20300007e
:020000040000fa
:0401ac00d20300007a
:020000040000fa
:0401b000d203000076
:020000040000fa
:0401b400d203000072
:020000040000fa
:0401b800d20300006e
:020000040000fa
:0401bc00d20300006a
:020000040000fa
:0401c000d203000066
:020000040000fa
:0401c400d203000062
:020000040000fa
:0401c800d20300005e
:020000040000fa
:0401cc00d20300005a
:020000040000fa
:0401d000d203000056
:020000040000fa
:0401d400d203000052
:020000040000fa
:0401d800d20300004e
:020000040000fa
:0401dc00d20300004a
:020000040000fa
:0401e000d203000046
:020000040000fa
:0401e400d203000042
:020000040000fa
:0401e800d20300003e
:020000040000fa
:0401ec00d20300003a
:020000040000fa
:0401f000d203000036
:020000040000fa
:0401f400d203000032
:020000040000fa
:0401f800d20300002e
:020000040000fa
:0401fc00d20300002a
:020000040000fa
:04020000d203000025
:020000040000fa
:04020400d203000021
:020000040000fa
:04020800d20300001d
:020000040000fa
:04020c00d203000019
:020000040000fa
:04021000d203000015
:020000040000fa
:04021400d203000011
:020000040000fa
:04021800d20300000d
:020000040000fa
:04021c00d203000009
:020000040000fa
:04022000d203000005
:020000040000fa
:04022400d203000001
:020000040000fa
:04022800d2030000fd
:020000040000fa
:04022c00d2030000f9
:020000040000fa
:04023000d2030000f5
:020000040000fa
:04023400d2030000f1
:020000040000fa
:04023800d2030000ed
:020000040000fa
:04023c00d2030000e9
:020000040000fa
:04024000d2030000e5
:020000040000fa
:04024400d2030000e1
:020000040000fa
:04024800d2030000dd
:020000040000fa
:04024c00d2030000d9
:020000040000fa
:04025000d2030000d5
:020000040000fa
:04025400d2030000d1
:020000040000fa
:04025800d2030000cd
:020000040000fa
:04025c00d2030000c9
:020000040000fa
:04026000d2030000c5
:020000040000fa
:04026400d2030000c1
:020000040000fa
:04026800d2030000bd
:020000040000fa
:04026c00d2030000b9
:020000040000fa
:04027000d2030000b5
:020000040000fa
:04027400d2030000b1
:020000040000fa
:04027800d2030000ad
:020000040000fa
:04027c00d2030000a9
:020000040000fa
:04028000d2030000a5
:020000040000fa
:100400002ff723000eff27000e01880000000000d8
:10041000000020000000e000020032000001200087
:100420002002880014000700e00007000000e00040
:1004300003003a00c0f82400010020000200370049
:100440000000200001002000810f70000100320038
:100450000f000700000020000000e0000200320052
:100460000000020000000000ac4b02000000000091
:100470000040da000000fe00000120000000e00063
:1004800002003200002020009001880000000600d9
:10049000a1028800800478000000eb001f003700f4
:1004a000e284440054a0b4009905ba00e2844400f8
:1004b00054a0b4009906ba00e284440054a0b400e9
:1004c0000006eb00476fde00fd07b200ae018800ba
:1004d000636ce10003003a000ad801000000eb0061
:1004e0000e003700606ce10008003a00004deb00a0
:1004f0000a05e800020039003420ec000af0a000f0
:100500008b05e900f9ff3e00040037006168e10057
:10051000010032000086eb000b00070019c7ba008b
:100520001905ba000e04e00003003a000a00e000da
:10053000dbff3a0000000600fe07b200ae028800b2
:100540008a047800f5ff37000cd0a300e20f4d00bd
:100550001c00390089027800354dba000a05e80010
:10056000020039003420ec000af0a0008b05e900fd
:100570000f003200254dba000a05e80002003900dc
:100580003420ec000af0a0008b05e90008003200de
:100590000c00e0000600320015cdba000a05e800a4
:1005a000020039003420ec000af0a0008b05e900bd
:1005b0008984e80054a0b4000b00e000e2ff3a0098
:1005c000000006009902ba00055d78008b05e9007d
:1005d000f7ff3200c82ade00055d78008b05e900d0
:1005e000f3ff32000c00e000f1ff320019ddba0029
:1005f000eeff3700603a040000000000d846040017
:1006000000000000fc460400000000008e470400cb
:1006100000000000464704000000000038480400c5
:100620000000000044480400000000009a47040055
:1006300000000000a647040000000000ba470400c4
:1006400000000000d8470400000000001848040023
:100650000000000024480400000000000000fa0030
:10066000c028a900ffff37000000fa00c068a900f9
:10067000ffff37000000fa00c048a900ffff370065
:100680000000fa00c088a900ffff37000000fa0050
:10069000c0a8a900ffff3700801f78000000fa0003
:1006a000008080000000e800008088000068a90049
:1006b0000080fa004f007800004006000000fa00b9
:1006c00050898000618980000080fa0000000600e7
:1006d000809fbe000000fa0010c0b3001df1b700fb
:1006e000508980006189800061004000e0804800fe
:1006f000508988006189880000e8a9000080fa001c
:100700004f00be0000400600809fbe000000fa00bf
:1007100071898000301f2000808f500004003c0051
:10072000708980000000e800708988000d003700a3
:100730002e31ef00207080004a00de006140600032
:100740000004a200614060000080fb0061006000c6
:100750004a00dd002170800001a0a10001007000ae
:10076000207088000088a9000080fa004f00be00b9
:10077000004006000000fa0001c8a9000080fa004d
:10078000004006000000fa000308a9000080fa00fb
:10079000004006000000fa000488a9000080fa006a
:1007a000004006000040da000000fe0000000500e6
:1007b00003f0a200889fbe008a9fbe008c1f7800b5
:1007c000ac010700b30133006450e1004f00320078
:1007d0006420e1005200320003826c0007003b00fd
:1007e0000905d0000306d000820f54000c065d00fe
:1007f0000200390002003200890178000306780007
:100800008582550004003d000003fd008103fd00ca
:100810008502ea008b854200840f720002003b00d3
:1008200060001000e08018006011b8000005eb00c7
:100830007a28e1000a00390006007800c75ddd0073
:10084000f707b200878075002d00370082817100a4
:100850000a017800610560008180d1000080d3002a
:100860008502e900f9ff3b00060440008784480048
:1008700002003b0060041400e0841c000988a3000f
:10088000070032008a817100828171006101640079
:100890008904d1000884d3008b05e80017003700d5
:1008a0000978a30013003a000b00e00013003400a5
:1008b0008b05e9000804440089844c000a44740054
:1008c0000978a3000d003a000b00e0000700340097
:1008d0008b05e9000804440089844c0001003a00bb
:1008e0000b0020000978a300f7ff32000001eb00a5
:1008f00002003700828171000a017800220107009e
:100900000cf0a70001f0a0006b0137006420e100ab
:1009100002003a00838f6c006b0133000801be00b7
:100920000200be0064013700889fbe008a9fbe009f
:100930008c1f78004f0107001002200002003b00ce
:10094000f0898800530137008a0062006408e100e2
:1009500002003a00f08988005b0137006108e1007d
:10096000fcff32000800be0003047800700007009e
:1009700001f0a1000900070008f0a60004003700fc
:100980000001be0091042400b0fd200088ff070094
:1009900009f0a70001f0a20047013700889fbe00c0
:1009a0008a9fbe008c9fbe000004be001c01070091
:1009b0000800be00890678006420e10008003900c4
:1009c000040032000160a00012022000f2898800b9
:1009d0005300370091fc2300b0fd20004e0037008b
:1009e0000006eb0009f0a10003f82300020020003c
:1009f0000800be009f0007000600340001f8230035
:100a0000000020000801be00490007000004be00ed
:100a10002c0020000800be0093e82300320a2300c7
:100a200094000700120034000801be00d1fd23002d
:100a3000703d2b005fff07000005be00b3f32300ed
:100a4000f27a26000800be002201070003f8230006
:100a50000200200056ff07000801be0055ff0700f6
:100a60000a01be00320007000004be000c06e800c8
:100a70000800be0001f0a10002002000039823003e
:100a80007c0007000800be00160035000801be000b
:100a9000100107000005be0032cd2c0043fb2300ef
:100aa00044ff0700809fbe001269280003d52b0079
:100ab0000a00be0007010700620f210013ef2b00a0
:100ac0003cff07000a01be00020107004f01be0003
:100ad000170007000801be00fe0007000801be0065
:100ae00034ff07000c00e0000b0032000c10a700e0
:100af00001f0a200b2fd200093fc23006260e1003f
:100b00000400320022a9200063f023000c10a7008b
:100b100063f8230027ff07000df0a70001f0a200f3
:100b20004f06be004f05be004f04be000000060089
:100b3000889fbe008a9fbe008c1f7800cd000700f2
:100b4000d400330003866c006450e1002e003200b4
:100b50006420e100330032006150e1002f003200d8
:100b60006120e1003100320085855500eb07b000bf
:100b70000900200008042000050037000804440094
:100b800089844c000a0031000603430087834b0030
:100b90000001530081815b00f8ff33000203be00b7
:100ba0000800a0000804440089844c00f6ff3900c6
:100bb000c639dd00830173000100320013002000fc
:100bc0008904d1000884d3000998a30005003200ed
:100bd0000800a7000300a0008904d1000884d30006
:100be0008b05e8008904d1000884d3000001eb00e4
:100bf0000281d2006400070001f0a1000cf0a70000
:100c000001f0a000ac0037006420e100ae0032002b
:100c10000801be000200be00f7ff37006120e100be
:100c2000a90032006000b800f3ff37000000200088
:100c300001f82700f0ff3700839f68000100e00003
:100c400002003d0060001000e08018000300e0009a
:100c500002003d0060011100e0811900d100070091
:100c60004f00e00002003b0060001000e080180030
:100c7000000006001400200005023700f4ff2f00da
:100c8000030237000001be00650007000470a700e2
:100c900003f0a1006509b100160032000d00350017
:100ca0006828e10006003500f0ff2f00f1ff270063
:100cb0000300e00013003b000100280000000500d5
:100cc00000004000818048008502e900fcff3a00f6
:100cd00008003700f88f420002003c008000eb0063
:100ce000000005008100d1000080d3008502e800eb
:100cf000fcff3a000300e00002003b00600010002f
:100d0000e0801800000006000001be00440007005b
:100d10000470a70003f0a10003f8a30013003a0039
:100d20006509b10010003200090035006928e100b2
:100d3000020035000100280000000500000040000e
:100d4000818048008502e900fcff3a0000000600af
:100d5000f88f4200050035008100d1000080d300eb
:100d60008502e800fcff3a00000006008000eb006e
:100d7000000005004f89de0082017800df013700a6
:100d800004002000c201370081002000618055006e
:100d90000b003d000b00200061fe2f000100e10070
:100da0001d00340082817100610164008904d1005a
:100db0000884d3000000e800faff3a007100200028
:100dc000610064000300700002006000090032004e
:100dd00061044400e0844c000988a500050032004d
:100de0008b05e8006808e10002003a008904d100a0
:100df0000884d300f20f20000258e10005003d00f6
:100e0000c75ddd00f907b200898075000800780031
:100e1000000006000bf827008b007800000005009a
:100e2000c70ade00f107b200f50fb2000800320079
:100e3000e1cf4200020032000170a0002400050052
:100e4000810f700001003200040805004400050015
:100e5000810f700002003a00140005008502e900cd
:100e60000000400081c04800fcff3b000170a00072
:100e7000240005000004be00e9ff07000003be00d7
:100e80000405be000200be00e5ff0700844f7500a8
:100e9000000006000200be006450e10005003600bc
:100ea0006420e100020036000968a30001003a0056
:100eb0000800be000160a0004f0678004f05be008c
:100ec0004f04be0000000600f0ff2f00f1ff2700d6
:100ed000f9ff3700889fbe008a9fbe008c1f7800f4
:100ee000e4ff0700ebff330003866c006450e10071
:100ef000240032006420e100270032006150e1004c
:100f0000220032006120e100210032008b85420086
:100f1000eb07b1000134b800003ab8000804420001
:100f200089844a00013ab8000030b8008880400047
:100f300009014a000400330000004000818048009d
:100f4000020149008b05e900c909dd008301700039
:100f50000100320013002000c814de004814dd0038
:100f60004709de001200b200c808de0008847000e5
:100f700085ff070001f0a1000cf0a70001f0a00020
:100f8000cdff37006120e100cfff32000801be0035
:100f90000200be00f7ff37006150e100fcff3a009d
:100fa000c9ff37006022b800060220000000d00010
:100fb0008180d2000482d2008582d2000000a0008d
:100fc0000202520083825a000300310002024200f2
:100fd00083824a000000a1000603e900f3ff3a0003
:100fe00000000600889fbe008a9fbe0030044200b9
:100ff000b0844a0030054b0090854b006000b10082
:101000000898be000a90be000440e10005c8e10057
:1010100006d0e10007d8e10002003100680040007e
:101020001008e8004f05be004f04be000000060097
:10103000889fbe008a9fbe003004be002005be000f
:101040000418540005985c0006185d0007985d00c0
:10105000110020000440e10005c8e10006d0e100d5
:1010600007d8e100010039008000eb001088100073
:101070004f05be004f04be00000006001200fa003b
:10108000889fbe008a9fbe008c9fbe00e0b79f0075
:10109000f1b79f0082bf9f0093bf9f000605be006f
:1010a0000404be000000eb00d0b79f00c0b79f0053
:1010b000b0b79f00a0b79f0090b79f000006eb005d
:1010c0005fb19700cfb09700820141003fb0970019
:1010d0000200e00004003d00370007007e8057005a
:1010e000c0ff070003003700330007007e80570071
:1010f000cfff0700dfb697000d00e0000c003500c1
:101100006fb29700ffb297000fbb97009fbb97008d
:1011100010002000010020006011b80000027200e1
:101120008182720002037300838373001b00070037
:101130000c06e80001042000810f5600e0ff3a0091
:101140000d00e00004003d000802be000a03be00de
:101150007e805700a3ff07005fa897000000e00013
:1011600005003a001fb29700afb297003fb3970057
:10117000cfb39700090007006fb09700ffb097004a
:101180000fb997009fb997004f06be004f05be00ec
:101190004f04be000080fa000000060001000700b6
:1011a00000000600a4b79f00b5b79f00c6b79f0018
:1011b000d7b79f00000006004f09de008281710052
:1011c000b3b79f004f01de00818040008280700035
:1011d000a1b79f008fb097004f09de0000004000cc
:1011e0000200700090b79f007fa897004f01de00bb
:1011f000818040008280700081b79f000d00070051
:101200004f3ade000000400004007000f0af9f0085
:10121000080007000402420085824a0006034b00d2
:1012200087834b00dfff07000802be000a03be00f1
:10123000000006002fb29700bfb297004fb397008f
:10124000dfb3970000000600881f78001800200018
:10125000881f780089ff07008f87e9004f04780016
:1012600000000600801feb0084ff07008f87e90065
:1012700000000600889fbe008a9fbe00e00f50005d
:10128000e08f5800e00f5900e08f59000c003d003e
:101290006044b8006055b8000000540081805c00d4
:1012a00002015d0083815d00180020001500070029
:1012b00008003d00180007000004eb00050037009f
:1012c0000004eb000f00070002003d0012000700c1
:1012d00018002000dcff07000800e00006003200d4
:1012e0006022b8006033b8000000520081805a00cc
:1012f00002015b0083815b004f05be004f04be000e
:1013000000000600e00f5200e08f5a00e00f5b0083
:10131000e08f5b00000006006044b8006055b80034
:101320000402540085825c0006035d0087835d0033
:1013300000000600889fbe008a9fbe008c1f7800b8
:10134000e00f5000e08f5800e00f5900e08f590087
:101350000d003d006044b8006055b8000000540026
:1013600081805c0002015d0083815d001c00200023
:101370000820e10009a8e1000ab0e1000bb8e10093
:101380000d003d00080037000006eb00e00f5200a2
:10139000e08f5a00e00f5b00e08f5b0006003d002d
:1013a0006044b8006055b8000402540085825c00b7
:1013b00006035d0087835d00aaff07000c00e000c4
:1013c000060032006022b8006033b800000052000e
:1013d00081805a0002015b0083815b004f06780028
:1013e0004f05be004f04be0000000600889fbe00ef
:1013f0008a9fbe008c1f78000006eb00e00f5000b3
:10140000e08f5800e00f5900e08f590007003d00c1
:101410006044b8006055b8000000540081805c0052
:1014200002015d0083815d001c002000e00f52007e
:10143000e08f5a00e00f5b00e08f5b0007003d008b
:101440006044b8006055b8000402540085825c0016
:1014500006035d0087835d000c00a20066000700a4
:101460000c00e000060032006022b8006033b800d3
:101470000000520081805a0002015b0083815b0002
:101480004f0678004f05be004f04be000000060066
:10149000889fbe008a9fbe00841f780075fe0700eb
:1014a0004f00780011003300f0ff2f00838f6c0095
:1014b00006003b00040565000a00a700080037008d
:1014c00009f0a6001000200008003700820f540029
:1014d000838f5c00030039001000200001003e00f3
:1014e0000000200009f0a7000000ea004f05be0040
:1014f0004f04be000000e00000000600881f7800d6
:10150000030478000300e00007003d0060001000c5
:10151000e080180060011900e081190002003b0022
:1015200001f02d00030037000400070008f0a700b9
:1015300001f0a0004f04780000000600889fbe0064
:101540008a9fbe0000827000040271000482710054
:10155000260032000004be000200be006011b80088
:101560006b092000950220000182cf000a0039009b
:101570000541b1000082cf00070039000541b100ec
:101580000982cf00040039000541b1000882cf0074
:10159000010039000541b10005425200120032003d
:1015a0000a003b0082817100610164008100d1006a
:1015b0000080d3008984d3000884d3008b05e80021
:1015c0000442e800f7ff3a0007003700080444002f
:1015d00089844c0000004800818048008b05e900a8
:1015e0000442e900f9ff3a00e7fd07004f05be009d
:1015f0004f04be0000000600889fbe008a9fbe0008
:101600008c9fbe000404b8000506b800890446009b
:1016100060854e000606b8000a054600e0854e00cb
:101620000706b8008b054600040eb8008904460082
:101630000a854e00e0854d00050eb8000a054600fb
:101640008b854e00060eb8008b0546000416b800c8
:101650000a0546008b854e000516b8008b0546002e
:10166000041eb8008b0546000800be000a01be003b
:101670004f06be004f05be004f04be00000006002e
:101680008001780002003700815978000201e900ea
:0c1690000200e000fcff3a000000060031
:020000040000fa
:10169c00080c0000303100003233000034350000fb
:1016ac003637000000000000e12e0000654200000b
:020000040000fa
:1016bc000000fa008084800091848000f2072000f2
:1016cc000300200059fd07000080fa00000006000e
:1016dc000200fa00000f780010c0b3008ef0b700c3
:1016ec003071ef009e007800e183880095060700ba
:1016fc0000000000671e07000004e000fdff320040
:10170c000040eb007a06070000000000611e070095
:10171c000004e000fdff320030c6b3009206070063
:10172c00000000005b1e07000004e000fdff32001b
:10173c000000eb005806070000000000551e0700d3
:10174c00e14f500003003200521e0700e24f5000e0
:10175c00faff3a000000eb005a0607008ed0bf00db
:10176c000004a2000004e000080032000001eb00bd
:10177c008000eb000000eb00c90507000001eb0046
:10178c008000eb000000eb00040607008800070057
:10179c000040eb000080fa00000006000400fa0094
:1017ac000000eb00000f78004006200010079800a6
:1017bc00790037002a2007000004e0007300320093
:1017cc00400620009e007800808f500034003400ca
:1017dc001e009000800cb0009e0f500030003500b1
:1017ec00208080006101b900e0808000f1808000e1
:1017fc000200400083804800e0808800f18088006f
:10180c00308080006101b90000818000118180006e
:10181c00020040008380480000818800118188000c
:10182c00408080006101b9002081800031818000fe
:10183c0002004000838048002081880031818800ac
:10184c00508080006101b90040818000518180008e
:10185c00020040008380480040818800518188004c
:10186c00608080006101b90060818000718180001e
:10187c0002004000838048006081880071818800ec
:10188c00708080006101b9008081800091818000ae
:10189c00020040008380480080818800918188008c
:1018ac001e009000800cb0009e0f500036003a00d5
:1018bc00e4808000f58080001e009000cf80de0068
:1018cc000001be000400be00d8fc0700e0808800c8
:1018dc00f180880004818000158180001e0090003a
:1018ec00cf80de000001be000400be00cffc07006c
:1018fc00008188001181880024818000358180005e
:10190c001e009000cf80de000001be000400be006f
:10191c00c6fc07002081880031818800448180004a
:10192c00558180001e009000cf80de000001be00bb
:10193c000400be00bdfc0700408188005181880076
:10194c0064818000758180001e009000cf80de00d5
:10195c000001be000400be00b4fc070060818800da
:10196c007181880084818000958180001e00900028
:10197c00cf80de000001be000400be00abfc0700ff
:10198c0080818800918188001e0fe80000ca280021
:10199c0001002000002207001e009000900cb000f7
:1019ac009e0f500083ff3c000080fa0000000600f0
:1019bc001a00fa00889fbe008a9fbe008c9fbe0052
:1019cc009403070075ff07008ed0bf000004e000f1
:1019dc0020003200e0808000f18080000000780060
:1019ec000000ea00a0818800008180001181800045
:1019fc00000078000000ea00b0818800208180009f
:101a0c00318180000000780001002400008050002b
:101a1c00c0818800408180005181800000007800e6
:101a2c000000ea00d0818800608180007181800014
:101a3c00000078000000ea00e081880080818000ce
:101a4c0091818000000078000000ea00f08188009d
:101a5c0023013700e0808000f180800060001000de
:101a6c00e0801800e00f5000e08f580002003d00ad
:101a7c0067004000e08048004d09dd004304de00b3
:101a8c0008047100c38cde000800be000000780062
:101a9c00a08188000081800011818000600010000e
:101aac00e0801800e00f5000e08f580002003d006d
:101abc0067004000e0804800cd09dd004305de00f2
:101acc000a857100c38dde000a00be00000078009c
:101adc00b08188002081800031818000600010007e
:101aec00e0801800e00f5000e08f580002003d002d
:101afc0067004000e08048004d09dd004302de0035
:101b0c000402710014079800c389de0023079800b3
:101b1c001e009000ae00900000007800c08188008c
:101b2c00408180005181800060001000e08018002e
:101b3c00e00f5000e08f580002003d0063004000b1
:101b4c00e08048004e09dd004202de000402710014
:101b5c0034079800c289de00430798003e009000cd
:101b6c00ce00900000007800d08188006081800059
:101b7c007181800060001000e0801800e00f5000c0
:101b8c00e08f580002003d0063004000e0804800f8
:101b9c004e09dd004202de00040271005407980079
:101bac00c289de00630798005e009000ee00900092
:101bbc0000007800e08188008081800091818000a5
:101bcc0060001000e0801800e00f5000e08f58001b
:101bdc0002003d0063004000e08048004e09dd003b
:101bec004202de000402710074079800c289de0014
:101bfc00030f98007e0090008e0890000000780083
:101c0c00f08188000100370000000000e3fe0700af
:101c1c0000942100110020005f2107000000eb0060
:101c2c00000f7800e0808000f180800000007800d8
:101c3c00e80f400007003500e0808000f180800054
:101c4c0000007800e80f500002003c001e0fe80076
:101c5c0011003700a081800000017800e080800036
:101c6c00f1808000e00f5000e08f580002003d0032
:101c7c0067004000e08048004d0add004306de00ae
:101c8c000c067200c38ede000c00be000000780053
:101c9c0000005100a081880000818000118180002b
:101cac0000007800e80f400007003500008180003c
:101cbc001181800000007800e80f500002003c0009
:101ccc001e0fe80014003700b0818000000178007e
:101cdc000081800011818000e00f5000e08f5800df
:101cec0002003d0067004000e08048004d0add0026
:101cfc00c301de0083017200130f9800c389de005c
:101d0c00230f98001e089000ae0890000000780089
:101d1c0000005100b081880020818000318180005a
:101d2c0000007800e80f400007003500208180009b
:101d3c003181800000007800e80f500002003c0068
:101d4c001e0fe800170037002081800031818000d1
:101d5c000200240003002000000051008180590083
:101d6c00e00f5000e08f580002003d00670040007b
:101d7c00e08048004d09dd004302de0004027100e2
:101d8c00340f9800c389de00430f98003e08900082
:101d9c00ce08900080007800c08180000080400058
:101dac00c081880040818000518180000000780053
:101dbc00e20f400007003500408180005181800017
:101dcc0000007800e20f500002003c001e0fe800fb
:101ddc000d003700d0818000000278004081800027
:101dec00518180004f09de008001eb0002004000b1
:101dfc00838048008180d1000080d30000007800ef
:101e0c0000005200d08188006081800071818000c8
:101e1c0000007800e20f4000070035006081800070
:101e2c007181800000007800e20f500002003c003d
:101e3c001e0fe8000d003700e081800000027800e2
:101e4c0060818000718180004f09de008001eb0011
:101e5c0002004000838048008180d1000080d300c4
:101e6c000000780000005200e08188008081800032
:101e7c009181800000007800e20f400007003500df
:101e8c00808180009181800000007800e20f50007a
:101e9c0002003c001e0fe8000d003700f0818000ae
:101eac000002780080818000918180004f09de0063
:101ebc008001eb0002004000838048008180d1004b
:101ecc000080d3000000780000005200f0818800f0
:101edc001e007800e60f50004bff3a000000000097
:101eec004f06be004f05be004f04be000080fa0036
:101efc00000006002200fa00889fbe00a08080002f
:101f0c00cf80de0098fb07000004be0080808000bc
:101f1c00cf80de0094fb07000801be007ffa0700ab
:101f2c000002be00d05a8400e15a84000001be00b9
:101f3c000400be00e4fb0700008fbe00a080800000
:101f4c00cf80de0088fb07000004be00908080007c
:101f5c00cf80de0084fb07000801be006ffa07008b
:101f6c000002be00d05a8400e15a84000001be0079
:101f7c000400be00d4fb070020079800310798002e
:101f8c00b08080006101b900008280001182800065
:101f9c000000510081805900023220000300200013
:101fac0022fb070040079800c08080006101b90047
:101fbc002082800031828000000051008180590015
:101fcc00320820000300200018fb070000007800f6
:101fdc000000ea0050079800d08080006101b90031
:101fec0040828000518280000000510081805900a5
:101ffc00f2072000030020000cfb0700600798008c
:10200c00a0702d0031c2230070079800010f9800ba
:10201c004e009000cf80de0053fb07007e01900045
:10202c008e099000a8fb07000002be00c00421002e
:10203c00b0009000200090000001be000400be0023
:10204c00d9f90700100f9800210f98005e0090003e
:10205c00cf80de0044fb07007e0190008e099000cb
:10206c0099fb07000002be0040052100b000900063
:10207c00200090000001be000400be00caf9070059
:10208c00300f9800410f98006e009000cf80de005a
:10209c0035fb07007e0190008e0990008afb07003b
:1020ac000002be00c0052100b0009000200090008e
:1020bc000001be000400be00bbf90700500f9800e1
:1020cc00610f9800703d2a0001f72300700f9800f3
:1020dc00011798001e099000ae0990007e08900030
:1020ec008e10900078fb07000004be007e09900063
:1020fc008e1190000000200001f82300a9f90700c0
:10210c002e019000be0190006ffb07000001be0085
:10211c000800be00a4f90700c20421000089be001b
:10212c003e099000ce0990007e0890008e10900021
:10213c0065fb07000004be007e0990008e11900024
:10214c000000200001f8230096f907001e01be00d4
:10215c005dfb07000001be000800be0092f90700fd
:10216c00420521000089be00c00521005e099000d7
:10217c00ee0990000288be0018c0b3006011b800d0
:10218c005e089000ee089000b9fa07000000e0002d
:10219c0001003c000044eb000804e00002003200a7
:1021ac00158ea90001003700158ea800c00421006f
:1021bc001000be00c20421002001980031019800db
:1021cc00400521001000be004205210020019800ae
:1021dc0031019800c00521001000be00c20521008d
:1021ec0020019800310198004f04be000080fa00d5
:1021fc00000006000000fa00c00521001000be001f
:10220c000080fa00000006000400fa00889fbe005f
:10221c00d0cc2c00c1dc2300008fbe00808080005d
:10222c00cf80de00d0fa070020838800318388003d
:10223c0090808000cf80de00cbfa070040838800be
:10224c0051838800a0808000cf80de00c6fa070092
:10225c006083880071838800808380009183800074
:10226c001e01be0018fb07000004be001e01be00cc
:10227c000000200001f823004af907000002be000c
:10228c0020838000318380000001be000400be006a
:10229c000dfb07000001be000800be0042f907005c
:1022ac00808388009183880024838000358380009c
:1022bc0080838000918380000001be000400be007a
:1022cc0038f907002083880031838800a0838000c0
:1022dc00b18380001e01be00fbfa07000004be00a3
:1022ec001e01be000000200001f823002df907009c
:1022fc000002be0040838000518380000001be00bc
:10230c000400be00f0fa07000001be000800be0089
:10231c0025f90700a0838800b183880044838000de
:10232c0055838000a0838000b18380000001be0033
:10233c000400be001bf9070040838800518388000d
:10234c00c0838000d18380001e01be00defa07002e
:10235c000004be001e01be000000200001f8230096
:10236c0010f907000002be006083800071838000ba
:10237c000001be000400be00d3fa07000001be003d
:10238c000800be0008f90700c0838800d1838800cc
:10239c006483800075838000c0838000d1838000bb
:1023ac000001be000400be00fef807006083880038
:1023bc0071838800030007004f04be000080fa0000
:1023cc00000006000000fa00881f780020838000bf
:1023dc003183800018c0b3006011b80024fa0700e4
:1023ec000000e00001003c000044eb000804e000a9
:1023fc002b003200f183800080bb20000080400065
:10240c00cf80de0058fa07000002be002083800057
:10241c003183800018c0b3000001be000400be0070
:10242c0011fa07000000e000010035000044eb0049
:10243c000804e0000200320010c0b300ae00370008
:10244c003884800020838000318380000afa0700e2
:10245c008000780008014400a041230000004100e6
:10246c0001087800308480000000e8003084880087
:10247c00f1838000800c200000017800110009001d
:10248c008200d800f083880031848000700c20001a
:10249c00808f50002e0034008630ef002c00370067
:1024ac00208380003183800018c0b3006011b80015
:1024bc00edf907000000e000010035000044eb00de
:1024cc000804e000220032001184800080442f00b8
:1024dc0000804000cf80de0023fa07000002be001f
:1024ec0020838000318380000001be000400be0008
:1024fc00dff907005884800020838000318380003e
:10250c00ddf907008000780008014400a05a230080
:10251c000000410001087800508480000000e800b1
:10252c005084880011848000800c20000001780009
:10253c00110009008200d8001084880051848000aa
:10254c00700c2000808f5000010034008a30ef00a6
:10255c00408380005183800018c0b3006011b80024
:10256c00c3f907000000e00001003c000044eb0050
:10257c000804e0002b0032000184800080bb2000a6
:10258c0000804000cf80de00f7f907000002be009b
:10259c00408380005183800018c0b3000001be004e
:1025ac000400be00b0f907000000e0000100350097
:1025bc000044eb000804e0000200320030c0b3001d
:1025cc004d00370048848000408380005183800098
:1025dc00a9f907008000780008014400a0732300cb
:1025ec000000410001087800408480000000e800f1
:1025fc0040848800f1838000800c2000000178006a
:10260c00110009008200d800f0838800418480000a
:10261c00700c2000808f5000360034008830ef00a2
:10262c0034003700408380005183800018c0b30011
:10263c006011b8008cf907000000e00001003500c3
:10264c000044eb000804e0002a00320021848000e2
:10265c0080442f0000804000cf80de00c2f90700cc
:10266c000002be00408380005183800018c0b3007c
:10267c000001be000400be007df907000000e00070
:10268c0001003c000044eb000804e00002003200b2
:10269c0040c0b3001800370068848000408380007d
:1026ac005183800074f90700800078000801440011
:1026bc00a05a2300000041000108780060848000cb
:1026cc000000e8006084880021848000800c2000d9
:1026dc0000017800110009008200d80020848800d5
:1026ec0061848000700c2000808f50000100340049
:1026fc008c30ef000040eb004f0478000080fa00b3
:10270c00000006000400fa000000eb00000f780047
:10271c00e1082100914078002147980010c0b300d7
:10272c008ef0b7001c0037004d1c07000004e000c1
:10273c00190032001e0fe800b08080006101b90062
:10274c0000828000118280000200400083804800db
:10275c000082880011828800c08080006101b9006d
:10276c00208280003182800002004000838048007b
:10277c002082880031828800d08080006101b900fd
:10278c00408280005182800002004000838048001b
:10279c0040828800518288001e007800ee0f5000a5
:1027ac00e1ff34000082800011828000f2002000e2
:1027bc00030020001df907000082880011828800a8
:1027cc002082800031828000f20020000300200073
:1027dc0016f9070020828800318288004082800030
:1027ec0051828000f2002000030020000ff9070046
:1027fc0040828800518288002e4090000004e00046
:10280c000200320010c0b3008ef0b7000080fa0056
:10281c00000006000000fa00e08380000040780011
:10282c0063c0b300c2402300b1c3b3003119070029
:10283c000004e000380032000030ef00000000001f
:10284c00141a0700e14f500006003200111a07005d
:10285c00e24f50000300320000808000f30f500064
:10286c00f7ff3600c0402300104078000080fb00ca
:10287c00c800dd00d0402300104078000080fb0031
:10288c000100700020808800e04023001040780098
:10289c000080fb00c800dd00f040230010407800f1
:1028ac000080fb0001007000308088000041230094
:1028bc00104078000080fb00c800dd0010412300b0
:1028cc00104078000080fb00010070004080880000
:1028dc008ed0bf000004e0000f00320030d1bf00ea
:1028ec000004e0000c00320021808000a0818000f8
:1028fc00008040002080880031808000b081800002
:10290c00008040003080880041808000c0818000c1
:10291c0000804000408088000030ef000000000084
:10292c00dc190700e14f500006003200d9190700ee
:10293c00e24f50000300320000808000f30f500083
:10294c00f7ff3600e08380000040780063c0b300de
:10295c00c240230031c4b300e61807000004e000b5
:10296c00380032000030ef0000000000c9190700e9
:10297c00e14f500006003200c6190700e24f50002c
:10298c000300320000808000f30f5000f7ff360088
:10299c00c0402300104078000080fb00c800dd0020
:1029ac00d0402300104078000080fb000100700034
:1029bc0050808800e0402300104078000080fb002d
:1029cc00c800dd00f0402300104078000080fb00c0
:1029dc0001007000608088000041230010407800e6
:1029ec000080fb00c800dd0010412300104078007f
:1029fc000080fb0001007000708088008ed0bf004a
:102a0c000004e0000f00320030d1bf000004e000f1
:102a1c000c00320051808000a081800000804000ba
:102a2c005080880061808000b08180000080400070
:102a3c006080880071808000c08180000080400030
:102a4c007080880010808000e20f5000600032001f
:102a5c00e20f500005003c000000e0000a003200cc
:102a6c00e10f500031003200fd003700e40f500040
:102a7c00a9003200e40f50007e003500e50f500035
:102a8c00ce003200f60037008ed0bf000004e0000c
:102a9c001900320021808000a0818000008040005d
:102aac008080880031808000b081800000804000f0
:102abc009080880041808000c081800000804000b0
:102acc00a080880051808000d08180000080400070
:102adc00b080880061808000e08180000080400030
:102aec00c080880071808000f081800000804000f0
:102afc00d0808800da003700208080008080880039
:102b0c00308080009080880040808000a080880009
:102b1c0050808000b080880060808000c080880079
:102b2c0070808000d0808800cd0037008ed0bf0030
:102b3c000004e0001900320021808000a081800098
:102b4c00008040008080880041808000c08180002f
:102b5c00008040009080880031808000b08180002f
:102b6c0000804000a080880051808000d0818000cf
:102b7c0000804000b080880071808000f08180006f
:102b8c0000804000c080880061808000e08180006f
:102b9c0000804000d0808800b10037002080800089
:102bac008080880040808000908088003080800089
:102bbc00a080880050808000b080880070808000e9
:102bcc00c080880060808000d0808800a40037001e
:102bdc008ed0bf000004e00019003200318080006c
:102bec00b0818000008040008080880021808000bf
:102bfc00a08180000080400090808800418080008f
:102c0c00c081800000804000a0808800618080002e
:102c1c00e081800000804000b080880051808000fe
:102c2c00d081800000804000c080880071808000ce
:102c3c00f081800000804000d08088008800370040
:102c4c003080800080808800208080009080880008
:102c5c0040808000a080880060808000b080880068
:102c6c0050808000c080880070808000d0808800f8
:102c7c007b0037008ed0bf000004e000190032004a
:102c8c0031808000b081800000804000808088000e
:102c9c0041808000c08180000080400090808800ce
:102cac0021808000a081800000804000a0808800ee
:102cbc0061808000e081800000804000b08088004e
:102ccc0071808000f081800000804000c08088000e
:102cdc0051808000d081800000804000d08088002e
:102cec005f0037003080800080808800408080004a
:102cfc009080880020808000a08088006080800008
:102d0c00b080880070808000c08088005080800077
:102d1c00d0808800520037008ed0bf000004e00045
:102d2c001900320041808000c0818000008040008a
:102d3c008080880031808000b0818000008040005d
:102d4c009080880021808000a0818000008040005d
:102d5c00a080880071808000f0818000008040009d
:102d6c00b080880061808000e0818000008040009d
:102d7c00c080880051808000d0818000008040009d
:102d8c00d08088003600370040808000808088002a
:102d9c00308080009080880020808000a080880097
:102dac0070808000b080880060808000c0808800c7
:102dbc0050808000d0808800290037008ed0bf0062
:102dcc000004e0001900320041808000c0818000c6
:102ddc00008040008080880021808000a0818000dd
:102dec00008040009080880031808000b08180009d
:102dfc0000804000a080880071808000f0818000fd
:102e0c0000804000b080880051808000d08180001c
:102e1c0000804000c080880061808000e0818000dc
:102e2c0000804000d08088000d003700408080007a
:102e3c008080880020808000908088003080800016
:102e4c00a080880070808000b08088005080800056
:102e5c00c080880060808000d08088000000000066
:102e6c000080fa00000006000200fa00000f780053
:102e7c001e0078004880de008040780080412300ee
:102e8c00014878001e0078008040780090412300b3
:102e9c0001487800804123000080fa000000060001
:102eac000c00fa0030079800410798005207980070
:102ebc0010c0b300004f780010c0b300104798004a
:102ecc0010c0b3002047980000c82f00a1002000bc
:102edc00b11c07003e009000e3ff0700200798009c
:102eec00e08380000040780023c0b3002e019000e6
:102efc0061c0b300531707000004e0000200320069
:102f0c0010c0b300004f780000e4270051002000ef
:102f1c00a11c07004e009000d3ff0700200798006b
:102f2c00e08380000040780023c0b3002e019000a5
:102f3c0081c0b300431707000004e0000200320018
:102f4c0010c0b3001047980000e427005100200087
:102f5c00911c07005e009000c3ff0700200798003b
:102f6c00e08380000040780023c0b3002e01900065
:102f7c00a1c0b300331707000004e00002003200c8
:102f8c0010c0b3002047980000c82f00a1002000fb
:102f9c00811c07000080fa00000006000c00fa00fb
:102fac0030079800410798005207980010c0b300f2
:102fbc00004f780010c0b3001047980010c0b30049
:102fcc002047980000c82f00a1002000721c0700a9
:102fdc003e009000a4ff070020079800e0838000cb
:102fec000040780023c0b3002e01900031c1b30023
:102ffc00141707000004e0000200320010c0b300f8
:10300c00004f780000e4270051002000621c0700ec
:10301c003e00900094ff070020079800e08380009a
:10302c000040780023c0b3002e01900051c1b300c2
:10303c00041707000004e0000200320010c0b300c7
:10304c001047980000e4270051002000521c070094
:10305c003e00900084ff070020079800e08380006a
:10306c000040780023c0b3002e01900071c1b30062
:10307c00f41607000004e0000200320010c0b30098
:10308c002047980000c82f00a1002000421c070018
:10309c000080fa00000006000200fa00000f780021
:1030ac008e007800e08380000040780013c0b300ed
:1030bc0001017800c1c1b300e21607000080fa00dc
:1030cc00000006000200fa00000f78008e00780065
:1030dc00e08380000040780013c0b3000101780049
:1030ec00b1c1b300d71607000080fa00000006003b
:1030fc000200fa00004f7800e08380000040780066
:10310c0013c0b30032132100b1c6b300cd160700b3
:10311c000080fa00000006000200fa00004f780060
:10312c00e08380000040780014c0b30033c0b300cb
:10313c0022c0b300b1c6b300f51707000080fa0037
:10314c00000006000000fa00e083800000407800d8
:10315c0013c0b3001213210081c6b300b9160700c7
:10316c000080fa00000006000400fa0020479800d6
:10317c0010c0b300004f780013c0b3000e017800ec
:10318c0031c1b300a0c1b300ae16070000000000af
:10319c00c01707000004e000fdff32008e80e8003d
:1031ac00e08380000040780013c0b3000101780078
:1031bc0031c1b300a31607000080fa00000006001e
:1031cc000200fa00000f78001e0078000000e000fa
:1031dc00020034001e007800010037001e00ea00d7
:1031ec000080fa00000006000000fa000080fa00df
:1031fc00000006001000fa00100798002107980044
:10320c003207980043079800540798006507980008
:10321c00760798000040eb00004f7800000000009b
:10322c001e009000ae0090003e019000ce01900078
:10323c005e029000960207000004a2000004e00069
:10324c00f7ff3a001e4078000080fa0000000600ec
:10325c000600fa00200798002e0090006400400041
:10326c00104078000001fb00cf91de002e00900092
:10327c0065004000104078000002fb00cfa2de0089
:10328c004828dd00c820de00810070004820dd00e9
:10329c0002014000838148002e009000660040002f
:1032ac00104078000000fb00cf80de00c000dd0085
:1032bc000000200002014000838148002e00900095
:1032cc0067004000104078000000fb00cf80de005b
:1032dc00c800dd0000002000001f410001974900dc
:1032ec001e00be000080fa00000006000000fa007c
:1032fc00d189800000082000008060000000e00000
:10330c0002003a000040eb000100370010c0b3008f
:10331c000080fa00000006000000fa00d18980004d
:10332c0000042000008060000000e00002003a0071
:10333c000040eb000100370010c0b3000080fa0021
:10334c00000006000000fa00d18980000002200075
:10335c00008060000000e00002003a000040eb003a
:10336c000100370010c0b3000080fa000000060016
:10337c000000fa00d0898000700060000000e000be
:10338c0002003a000040eb000100370010c0b3000f
:10339c000080fa00000006000400fa00000f78001c
:1033ac00110798001e007800040007001e00900012
:1033bc001b0007000080fa00000006000200fa0063
:1033cc00000f7800705a84009e007800808f5000a7
:1033dc0002003400715a8400010f7800705a840086
:1033ec000000ea009e0f500002003400705a840066
:1033fc00000fea0011002000100020006c110700e3
:10340c001e00780080007800200020006811070062
:10341c00900020006f1107000080fa0000000600e9
:10342c000200fa00000f7800705a84009e007800a9
:10343c00808f500002003400715a8400010f780014
:10344c00705a84000000ea009e0f50000200340005
:10345c00705a8400000fea001100200010002000b8
:10346c00531107001e007800800078002000200017
:10347c004f110700a0002000561107000080fa0031
:10348c00000006000c00fa0050079800705a8400e7
:10349c00de009000808f500002003400715a8400ce
:1034ac0051079800705a84008000ea005e0090007a
:1034bc00808f500003003400705a84000000ea0032
:1034cc00500798005e009000cf80de00d2c7b3009a
:1034dc00024f780002302300120798000041eb00e5
:1034ec00424798003007980041079800760020006a
:1034fc00a50d21001e0078009e0090002e0190006a
:10350c00be0190004e0290003aff07000080fa00c6
:10351c00000006001400fa00100f9800705a840086
:10352c009e089000808f500002003400715a840075
:10353c00110f9800705a84008000ea001e08900059
:10354c00808f500003003400705a84000000ea00a1
:10355c00100f98001e089000cf80de00d2c7b30079
:10356c00024f980002302300520798000041eb00f4
:10357c00424f980070079800010f9800000000005f
:10358c004e009000de0090006e019000fe01900055
:10359c000e0a9000be0107000004a2000004e00027
:1035ac00f7ff3a000080fa00000006000c00fa0059
:1035bc0050079800705a8400de009000808f5000f5
:1035cc0002003400715a840051079800705a84002c
:1035dc008000ea005e009000808f500003003400f1
:1035ec00705a84000000ea00500798005e009000ba
:1035fc00cf80de00e2c7b300024f78000230230018
:10360c00120798000041eb004247980030079800e1
:10361c004107980066002000250e21001e0078004e
:10362c009e0090002e019000be0190004e02900072
:10363c00f0fe07000080fa00000006001400fa00fb
:10364c00100f9800705a84009e089000808f5000d4
:10365c0002003400715a8400110f9800705a8400d3
:10366c008000ea001e089000808f50000300340098
:10367c00705a84000000ea00100f98001e08900099
:10368c00cf80de00e2c7b300024f98000230230067
:10369c00520798000041eb00424f980070079800c9
:1036ac00010f9800000000004e009000de0090001a
:1036bc006e019000fe0190000e0a9000740107004c
:1036cc000004a2000004e000f7ff3a000080fa00ba
:1036dc00000006000c00fa0050079800705a840095
:1036ec00de009000808f500002003400715a84007c
:1036fc0051079800705a84008000ea005e00900028
:10370c00808f500003003400705a84000000ea00df
:10371c00500798005e009000cf80de00c2c7b30057
:10372c00024f780002302300120798000041eb0092
:10373c004247980030079800410798005600200037
:10374c00a50e21001e0078009e0090002e01900016
:10375c00be0190004e029000a6fe07000080fa0009
:10376c00000006001400fa00100f9800705a840034
:10377c009e089000808f500002003400715a840023
:10378c00110f9800705a84008000ea001e08900007
:10379c00808f500003003400705a84000000ea004f
:1037ac00100f98001e089000cf80de00c2c7b30037
:1037bc00024f980002302300520798000041eb00a2
:1037cc00424f980070079800010f9800000000000d
:1037dc004e009000de0090006e019000fe01900003
:1037ec000e0a90002a0107000004a2000004e00069
:1037fc00f7ff3a000080fa00000006001600fa00fd
:10380c00200f9800705a8400ae089000808f5000f2
:10381c0002003400715a8400210f9800705a840001
:10382c008000ea002e089000808f500003003400c6
:10383c00705a84000000ea00200f9800f0c7b30013
:10384c00004f780000002300100798000040eb00a8
:10385c0040479800400020000100200030079800ed
:10386c00410798002e089000cf80de00f2c7b3000d
:10387c00224f980002302300620798000041eb00b1
:10388c00624f9800000f9800110f9800460020001e
:10389c00250f21001e0078009e0090002e01900044
:1038ac00be0190004e02900052fe07004600200020
:1038bc00250f21005e009000ee0090007e0190002c
:1038cc008e0990001e0a90004afe07000080fa0044
:1038dc00000006001e00fa00600f9800705a840069
:1038ec00ee089000808f500002003400715a840062
:1038fc00610f9800705a84008000ea006e089000f6
:10390c00808f500003003400705a84000000ea00dd
:10391c00600f9800f0c7b300004f98000000230020
:10392c00500798000040eb00404f980040002000ea
:10393c000100200070079800010f98006e0890009d
:10394c00cf80de00f2c7b30022579800023023006c
:10395c00220f98000041eb0062579800400f98002e
:10396c00510f9800000000004e009000de00900007
:10397c006e019000fe0190000e0a9000c40007003a
:10398c000004a2000004e000f7ff3a000000000071
:10399c001e089000ae0890003e099000ce099000e1
:1039ac005e0a9000ba0007000004a2000004e000c8
:1039bc00f7ff3a000080fa00000006000e00fa0043
:1039cc0050079800610798005e009000ee00900090
:1039dc00f2c7b300024f7800127923001207980047
:1039ec000041eb00424798003007980041079800cf
:1039fc0046002000250f21001e0078009e0090003c
:103a0c002e019000be0190004e029000f9fd0700bf
:103a1c000080fa00000006000e00fa005007980023
:103a2c00610798005e009000ee009000f2c7b300b2
:103a3c00024f780012792300120798000041eb0026
:103a4c00424798003007980041079800000000009a
:103a5c001e0078009e0090002e019000be01900088
:103a6c004e0290008a0007000004a2000004e0004f
:103a7c00f7ff3a000080fa00000006001400fa007c
:103a8c00f0c7b300004f78005005230010079800d2
:103a9c000040eb004047980010132000010020006c
:103aac003007980041079800f0c7b300204f9800ea
:103abc0060052300600798000040eb00604f980001
:103acc000013200001002000000f9800110f980037
:103adc0046002000250f21001e0078009e0090005b
:103aec002e019000be0190004e029000c1fd070017
:103afc0046002000250f21005e009000ee00900093
:103b0c007e0190008e0990001e0a9000b9fd0700fe
:103b1c000080fa00000006001600fa00600798000a
:103b2c0071079800020f9800130f9800240f98004b
:103b3c004e4890008080fb00006020000080400018
:103b4c00000f780080c0b3002047980000b5280013
:103b5c00e300470007000900b05878008000b1006e
:103b6c0000c4b300304798007e00900000407800fd
:103b7c00404798007e0090004800de00004078002e
:103b8c00504798000e509000604798000040eb00a2
:103b9c00704798000040eb00004f98000040eb008d
:103bac00104f98000040eb00204f98000e0078005a
:103bbc00d90207000080fa00000006001600fa0087
:103bcc00600798007107980002579800140f98002e
:103bdc00250f9800ee00900000602000008040004f
:103bec00000f780080c0b3002047980000b5280073
:103bfc00e300470007000900b05878008000b100ce
:103c0c0030c2b300304798007e009000004078002e
:103c1c00404798007e0090004800de00004078008d
:103c2c00504798000e509000604798001e08900076
:103c3c0000407800704798001e089000ae08900075
:103c4c004809dd004800de0000007100c808de00f5
:103c5c0000407800004f98001e089000ae089000bd
:103c6c004008de0000407800104f98001e089000bd
:103c7c00ae0890004808de0000407800204f980005
:103c8c000e007800a40207000080fa000000060075
:103c9c001600fa006007980071079800020f980050
:103cac00130f9800240f98004e4890008080fb0062
:103cbc000060200000804000000f780080c0b3003e
:103ccc002047980000b52800e300470007000900d2
:103cdc00b05878008000b10030c2b3003047980073
:103cec007e00900000407800404798007e009000d5
:103cfc004800de0000407800504798000e509000bd
:103d0c00604798001e089000ae08900000407800b4
:103d1c00704798001e089000ae0890004809dd001e
:103d2c004800de0000007100c808de00004078008a
:103d3c00004f98001e089000ae0890004008de006e
:103d4c0000407800104f98001e089000ae089000bc
:103d5c004808de0000407800204f98000e007800e4
:103d6c006d0207000080fa00000006000c00fa004b
:103d7c00000f78001107980022079800330798006d
:103d8c0044079800550798001e0078009040780072
:103d9c0000c6b30080cf5000020032000040eb00a0
:103dac001e0037001e00e800104078008000fb0069
:103dbc002e019000f00f200000006100808f500059
:103dcc00020032000040eb00140037001e80e800b7
:103ddc00104078008000fb002e0090004800de00b0
:103dec00808f5000020032000040eb000b003700c7
:103dfc009e00780063804000104078008000fb003b
:103e0c006e4090000080fb00808f5000020032005a
:103e1c000040eb000100370010c0b3000080fa0036
:103e2c00000006000c00fa00000f78001107980043
:103e3c00220798003307980044079800550798000c
:103e4c001e0078009040780020c4b30080cf500052
:103e5c00110032001e0078009040780030c4b3008e
:103e6c0080cf50000c0032001e007800904078008b
:103e7c00b0c4b30080cf5000070032001e007800a1
:103e8c0090407800f0c4b30080cf500002003200a4
:103e9c000040eb001e0037001e00e80010407800c8
:103eac008000fb002e019000f00f2000000061004c
:103ebc00808f5000020032000040eb0014003700ed
:103ecc001e80e800104078008000fb002e0090005f
:103edc004800de00808f5000020032000040eb00f2
:103eec000b0037009e007800638040001040780083
:103efc008000fb006e4090000080fb00808f500023
:103f0c00020032000040eb000100370010c0b3008b
:103f1c000080fa00000006000400fa001007980068
:103f2c0010002000000f78008021800068006000e5
:103f3c000000e00037003a001e00900010007800ee
:103f4c006101b8000002eb008000eb000000eb0008
:103f5c004f0b07001e009000204890000080fb00d3
:103f6c00c800dd001e009000104890000080fb008f
:103f7c0000804000000278001e0090000048900075
:103f8c000080fb00c800dd001e0090007040900017
:103f9c000080fb0000804000800178001e00900033
:103fac00604090000080fb00c800dd001e00900007
:103fbc00504090000080fb00008040000001780021
:103fcc001e009000404090000080fb00c800dd0007
:103fdc001e009000304090000080fb0000804000ec
:103fec00800078001e009000204090000080fb00b4
:103ffc0084027800030278008201780001017800c5
:10400c00800078000000eb00330c07003064a8003f
:10401c00ab0137008121800000802000008060000f
:10402c000000e00037003a001e00900010007800fd
:10403c006101b8000002eb008000eb0010002000d2
:10404c00130b07001e009000204890000080fb001e
:10405c00c800dd001e009000104890000080fb009e
:10406c0000804000000278001e0090000048900084
:10407c000080fb00c800dd001e0090007040900026
:10408c000080fb0000804000800178001e00900042
:10409c00604090000080fb00c800dd001e00900016
:1040ac00504090000080fb00008040000001780030
:1040bc001e009000404090000080fb00c800dd0016
:1040cc001e009000304090000080fb0000804000fb
:1040dc00800078001e009000204090000080fb00c3
:1040ec0084027800030278008201780001017800d4
:1040fc008000780010002000f70b07003164a80046
:10410c006f01370090218000680060000000e00023
:10411c0037003a001e009000100078006101b800d2
:10412c000002eb008000eb0020002000d80a070002
:10413c001e009000204890000080fb00c800dd00ad
:10414c001e009000104890000080fb000080400092
:10415c00000278001e009000004890000080fb00d8
:10416c00c800dd001e009000704090000080fb0035
:10417c0000804000800178001e009000604090009c
:10418c000080fb00c800dd001e0090005040900035
:10419c000080fb0000804000000178001e009000b1
:1041ac00404090000080fb00c800dd001e00900025
:1041bc00304090000080fb000080400080007800c0
:1041cc001e009000204090000080fb0084027800cc
:1041dc0003027800820178000101780080007800e9
:1041ec0020002000bc0b07003264a800340137000b
:1041fc009121800000802000008060000000e00021
:10420c0037003a001e009000100078006101b800e1
:10421c000002eb008000eb00300020009c0a07003d
:10422c001e009000204890000080fb00c800dd00bc
:10423c001e009000104890000080fb0000804000a1
:10424c00000278001e009000004890000080fb00e7
:10425c00c800dd001e009000704090000080fb0044
:10426c0000804000800178001e00900060409000ab
:10427c000080fb00c800dd001e0090005040900044
:10428c000080fb0000804000000178001e009000c0
:10429c00404090000080fb00c800dd001e00900034
:1042ac00304090000080fb000080400080007800cf
:1042bc001e009000204090000080fb0084027800db
:1042cc0003027800820178000101780080007800f8
:1042dc0030002000800b07003364a800f800370082
:1042ec00a0218000680060000000e00037003a0068
:1042fc001e009000100078006101b8000002eb0075
:10430c008000eb0040002000610a07001e009000b6
:10431c00204890000080fb00c800dd001e009000cb
:10432c00104890000080fb000080400000027800e4
:10433c001e009000004890000080fb00c800dd00cb
:10434c001e009000704090000080fb000080400038
:10435c00800178001e009000604090000080fb00ff
:10436c00c800dd001e009000504090000080fb0053
:10437c0000804000000178001e009000404090003a
:10438c000080fb00c800dd001e0090003040900053
:10439c000080fb0000804000800078001e00900030
:1043ac00204090000080fb0084027800030278001b
:1043bc008201780001017800800078004000200024
:1043cc00450b07003464a800bd003700a121800014
:1043dc0000802000008060000000e00037003a0000
:1043ec001e009000100078006101b8000002eb0084
:1043fc008000eb0050002000250a07001e009000f2
:10440c00204890000080fb00c800dd001e009000da
:10441c00104890000080fb000080400000027800f3
:10442c001e009000004890000080fb00c800dd00da
:10443c001e009000704090000080fb000080400047
:10444c00800178001e009000604090000080fb000e
:10445c00c800dd001e009000504090000080fb0062
:10446c0000804000000178001e0090004040900049
:10447c000080fb00c800dd001e0090003040900062
:10448c000080fb0000804000800078001e0090003f
:10449c00204090000080fb0084027800030278002a
:1044ac008201780001017800800078005000200023
:1044bc00090b07003564a80081003700b02180008b
:1044cc00680060000000e00037003a001e00900019
:1044dc00100078006101b8000002eb008000eb00d6
:1044ec0060002000ea0907001e00900020489000a0
:1044fc000080fb00c800dd001e00900010489000fa
:10450c000080fb0000804000000278001e0090003c
:10451c00004890000080fb00c800dd001e009000e9
:10452c00704090000080fb0000804000800178000b
:10453c001e009000604090000080fb00c800dd0071
:10454c001e009000504090000080fb000080400056
:10455c00000178001e009000404090000080fb009d
:10456c00c800dd001e009000304090000080fb0071
:10457c0000804000800078001e00900020409000d9
:10458c000080fb008402780003027800820178002e
:10459c00010178008000780060002000ce0a07003e
:1045ac003664a80046003700b1218000008020004e
:1045bc00008060000000e00037003a001e00900010
:1045cc00100078006101b8000002eb008000eb00e5
:1045dc0070002000ae0907001e00900020489000db
:1045ec000080fb00c800dd001e0090001048900009
:1045fc000080fb0000804000000278001e0090004c
:10460c00004890000080fb00c800dd001e009000f8
:10461c00704090000080fb0000804000800178001a
:10462c001e009000604090000080fb00c800dd0080
:10463c001e009000504090000080fb000080400065
:10464c00000178001e009000404090000080fb00ac
:10465c00c800dd001e009000304090000080fb0080
:10466c0000804000800078001e00900020409000e8
:10467c000080fb008402780003027800820178003d
:10468c00010178008000780070002000920a070079
:10469c003764a8000a0037009e02900015007800cd
:1046ac009500900025019000b50190004502900006
:1046bc00d5029000c80307000000eb00000f780043
:1046cc001e00780000f0a7000000ea000000ea00dd
:1046dc004f00de00004078000080fa000000060069
:1046ec000200fa00000f780022150700e3140700ff
:1046fc00f31407002468a8000c04a8000c24a800dc
:10470c001e0078005088880095030700a30307005b
:10471c000080fa00000006000400fa001007980060
:10472c0010c0b300004f780080218000680060004a
:10473c000000e00037003a001e00900010007800e6
:10474c006101b8000002eb008000eb000000eb0000
:10475c004f0907001e009000204890000080fb00cd
:10476c00c800dd001e009000104890000080fb0087
:10477c0000804000000278001e009000004890006d
:10478c000080fb00c800dd001e009000704090000f
:10479c000080fb0000804000800178001e0090002b
:1047ac00604090000080fb00c800dd001e009000ff
:1047bc00504090000080fb00008040000001780019
:1047cc001e009000404090000080fb00c800dd00ff
:1047dc001e009000304090000080fb0000804000e4
:1047ec00800078001e009000204090000080fb00ac
:1047fc0084027800030278008201780001017800bd
:10480c00800078000000eb00330a07003064a80039
:10481c00ab01370081218000008020000080600007
:10482c000000e00037003a001e00900010007800f5
:10483c006101b8000002eb008000eb0010002000ca
:10484c00130907001e009000204890000080fb0018
:10485c00c800dd001e009000104890000080fb0096
:10486c0000804000000278001e009000004890007c
:10487c000080fb00c800dd001e009000704090001e
:10488c000080fb0000804000800178001e0090003a
:10489c00604090000080fb00c800dd001e0090000e
:1048ac00504090000080fb00008040000001780028
:1048bc001e009000404090000080fb00c800dd000e
:1048cc001e009000304090000080fb0000804000f3
:1048dc00800078001e009000204090000080fb00bb
:1048ec0084027800030278008201780001017800cc
:1048fc008000780010002000f70907003164a80040
:10490c006f01370090218000680060000000e0001b
:10491c0037003a001e009000100078006101b800ca
:10492c000002eb008000eb0020002000d8080700fc
:10493c001e009000204890000080fb00c800dd00a5
:10494c001e009000104890000080fb00008040008a
:10495c00000278001e009000004890000080fb00d0
:10496c00c800dd001e009000704090000080fb002d
:10497c0000804000800178001e0090006040900094
:10498c000080fb00c800dd001e009000504090002d
:10499c000080fb0000804000000178001e009000a9
:1049ac00404090000080fb00c800dd001e0090001d
:1049bc00304090000080fb000080400080007800b8
:1049cc001e009000204090000080fb0084027800c4
:1049dc0003027800820178000101780080007800e1
:1049ec0020002000bc0907003264a8003401370005
:1049fc009121800000802000008060000000e00019
:104a0c0037003a001e009000100078006101b800d9
:104a1c000002eb008000eb00300020009c08070037
:104a2c001e009000204890000080fb00c800dd00b4
:104a3c001e009000104890000080fb000080400099
:104a4c00000278001e009000004890000080fb00df
:104a5c00c800dd001e009000704090000080fb003c
:104a6c0000804000800178001e00900060409000a3
:104a7c000080fb00c800dd001e009000504090003c
:104a8c000080fb0000804000000178001e009000b8
:104a9c00404090000080fb00c800dd001e0090002c
:104aac00304090000080fb000080400080007800c7
:104abc001e009000204090000080fb0084027800d3
:104acc0003027800820178000101780080007800f0
:104adc0030002000800907003364a800f80037007c
:104aec00a0218000680060000000e00037003a0060
:104afc001e009000100078006101b8000002eb006d
:104b0c008000eb0040002000610807001e009000b0
:104b1c00204890000080fb00c800dd001e009000c3
:104b2c00104890000080fb000080400000027800dc
:104b3c001e009000004890000080fb00c800dd00c3
:104b4c001e009000704090000080fb000080400030
:104b5c00800178001e009000604090000080fb00f7
:104b6c00c800dd001e009000504090000080fb004b
:104b7c0000804000000178001e0090004040900032
:104b8c000080fb00c800dd001e009000304090004b
:104b9c000080fb0000804000800078001e00900028
:104bac00204090000080fb00840278000302780013
:104bbc00820178000101780080007800400020001c
:104bcc00450907003464a800bd003700a12180000e
:104bdc0000802000008060000000e00037003a00f8
:104bec001e009000100078006101b8000002eb007c
:104bfc008000eb0050002000250807001e009000ec
:104c0c00204890000080fb00c800dd001e009000d2
:104c1c00104890000080fb000080400000027800eb
:104c2c001e009000004890000080fb00c800dd00d2
:104c3c001e009000704090000080fb00008040003f
:104c4c00800178001e009000604090000080fb0006
:104c5c00c800dd001e009000504090000080fb005a
:104c6c0000804000000178001e0090004040900041
:104c7c000080fb00c800dd001e009000304090005a
:104c8c000080fb0000804000800078001e00900037
:104c9c00204090000080fb00840278000302780022
:104cac00820178000101780080007800500020001b
:104cbc00090907003564a80081003700b021800085
:104ccc00680060000000e00037003a001e00900011
:104cdc00100078006101b8000002eb008000eb00ce
:104cec0060002000ea0707001e009000204890009a
:104cfc000080fb00c800dd001e00900010489000f2
:104d0c000080fb0000804000000278001e00900034
:104d1c00004890000080fb00c800dd001e009000e1
:104d2c00704090000080fb00008040008001780003
:104d3c001e009000604090000080fb00c800dd0069
:104d4c001e009000504090000080fb00008040004e
:104d5c00000178001e009000404090000080fb0095
:104d6c00c800dd001e009000304090000080fb0069
:104d7c0000804000800078001e00900020409000d1
:104d8c000080fb0084027800030278008201780026
:104d9c00010178008000780060002000ce08070038
:104dac003664a80046003700b12180000080200046
:104dbc00008060000000e00037003a001e00900008
:104dcc00100078006101b8000002eb008000eb00dd
:104ddc0070002000ae0707001e00900020489000d5
:104dec000080fb00c800dd001e0090001048900001
:104dfc000080fb0000804000000278001e00900044
:104e0c00004890000080fb00c800dd001e009000f0
:104e1c00704090000080fb00008040008001780012
:104e2c001e009000604090000080fb00c800dd0078
:104e3c001e009000504090000080fb00008040005d
:104e4c00000178001e009000404090000080fb00a4
:104e5c00c800dd001e009000304090000080fb0078
:104e6c0000804000800078001e00900020409000e0
:104e7c000080fb0084027800030278008201780035
:104e8c000101780080007800700020009208070073
:104e9c003764a8000a0037009e02900015007800c5
:104eac009500900025019000b501900045029000fe
:104ebc00d5029000c80107000040eb00004f7800bd
:104ecc001e4078000080fa00000006003600f80052
:104edc00809fbe00829fbe00849fbe00869fbe0046
:104eec001a00fa000468a9005020800061006000dc
:104efc000000e00016003200cd0207000000e000c8
:104f0c00120032006e004700210207006e004700bd
:104f1c0041c22200b0187800a0107800e480400054
:104f2c0064004000b0187800a0107800e4804000c5
:104f3c0064004000b0187800a0107800e4804000b5
:104f4c006400400040c22200f3fd07000a04a900df
:104f5c0050208000620060000000e0001900320068
:104f6c0020208000004078000074a1000080fb002d
:104f7c00000f78006e0047009e00780018000700b4
:104f8c006e0047008e80e800b0187800a010780002
:104f9c00e480400064004000b0187800a010780055
:104fac00e480400064004000b0187800a010780045
:104fbc00e4804000640040000e80e8003d090700da
:104fcc000a24a9000080fa004f03be004f02be0065
:104fdc004f01be004f00be003600f9000040060035
:104fec001400fa00889fbe008a9fbe008c9fbe00f2
:104ffc0010079800010f7800a08980004400dd00a4
:10500c006100b80000f0a700012020000220210060
:10501c00030020000002d0008202d00005004200f4
:10502c004220a800838048004200a9004220ae0024
:10503c004200a8000080d300930180000101780099
:10504c009201880000000000000078001000780039
:10505c0093018800000000004200de00c06089005f
:10506c00a08980004400dd00640040006100b800ad
:10507c0000f0a700012020000420210005002000e2
:10508c000001d0008401d000030041004220a800a0
:10509c00858048004200a9004220ae004200a800d2
:1050ac000080d300930180000101780092018800f8
:1050bc0000000000000078001000780093018800c8
:1050cc000000000000407800ef406000a0c122000a
:1050dc0001487800a08980004400dd006600400093
:1050ec006100b80000f0a70001202000062021007c
:1050fc00070020000002d0008602d000050042000c
:10510c004220a800878048004200a9004220ae003f
:10511c004200a8000080d3009301800001017800b8
:10512c009201880000000000000078001000780058
:10513c00930188000000000080407800b0c122007c
:10514c0001487800a08980004400dd006600400022
:10515c006100b80000f0a700012020000820210009
:10516c00090020000001d0008801d000030041009c
:10517c004220a800898048004200a9004220ae00cd
:10518c004200a8000080d300930180000101780048
:10519c0092018800000000000000780010007800e8
:1051ac0093018800000000004800de008040780079
:1051bc00c0c1220001487800a08980004400dd00b5
:1051cc00680040006100b80000f0a700012020003a
:1051dc000a2021000b0020000002d0008a02d0001f
:1051ec00050042004220a8008b8048004200a90024
:1051fc004220ae004200a8000080d3009201800043
:10520c008101780093018800000000000000780004
:10521c0010007800920188000000000080407800a7
:10522c00d0c1220001487800a08980004400dd0034
:10523c00680040006100b80000f0a70001202000c9
:10524c000220210022079800030020003307980059
:10525c00be0290002e0290000001d0008401d0000c
:10526c00030041004220a800858048004200a900ac
:10527c004220ae004200a8000080d30092018000c2
:10528c008101780093018800000000000000780084
:10529c001000780092018800000000004800de0039
:1052ac0080407800e0c1220001487800a08980008d
:1052bc004400dd006a0040006100b80000f0a70067
:1052cc000120200004202100440798000500200044
:1052dc0055079800de0190004e0190000002d000ae
:1052ec008202d000050042004220a80083804800c2
:1052fc004200a9004220ae004200a8000080d3006a
:10530c009201800081017800930188000000000068
:10531c000000780010007800920188000000000066
:10532c0080407800f0c1220001487800a0898000fc
:10533c004400dd006a0040006100b80000f0a700e6
:10534c0001202000022021006207980003002000a9
:10535c0073079800fe0290006e0290000001d000ce
:10536c008401d000030041004220a8008580480041
:10537c004200a9004220ae004200a8000080d300e9
:10538c0092018000810178009301880000000000e8
:10539c0000007800100078009201880000000000e6
:1053ac004800de008040780000c2220001487800ee
:1053bc00a08980004400dd006c0040006100b80052
:1053cc0000f0a7000120200004202100040f980009
:1053dc0005002000150f98009e0990000e09900002
:1053ec000002d0008202d000050042004220a8003a
:1053fc00838048004200a9004220ae004200a80071
:10540c000080d30092018000810178009301880014
:10541c000000000000007800100078009201880065
:10542c00000000008040780010c222000148780083
:10543c00a08980004400dd006c0040006100b800d1
:10544c0000f0a700012020000c2021000d002000fe
:10545c000001d0008c01d000030041004220a800c4
:10546c008d8048004200a9004220ae004200a800f6
:10547c000080d300920180008101780093018800a4
:10548c0000000000000078001000780092018800f5
:10549c00000000004800de008040780020c222009e
:1054ac0001487800a0898000ef0f500008003c00f4
:1054bc00a0898000110020000008dd008000780029
:1054cc00002180000080680000218800080037005f
:1054dc00a089800070005000110020000008dd0041
:1054ec008000780010218000008068001021880066
:1054fc00a08980000000e800a0898800a0898000b5
:10550c00ff0f50000200340080002000a0898800aa
:10551c0080c122009e009000b0187800a010780086
:10552c00e480400064004000b0187800a0107800bf
:10553c00e480400064004000b0187800a0107800af
:10554c00e4804000640040001e0090004f06be0046
:10555c004f05be004f04be000080fa00000006009c
:10556c000000fa00a00f21000110200001087800b3
:10557c00a00f21008000eb0011009800a00f21006b
:10558c008000eb0021009800a00f21008000eb00b0
:10559c00310098000080fa00000006000000fa00bc
:1055ac00201021000110200001087800201021009b
:1055bc008000eb0011009800201021008000eb000f
:1055cc0021009800201021008000eb003100980091
:1055dc000080fa00000006000c00fa00000f7800b2
:1055ec001107980022079800330798004407980089
:1055fc0055079800a00f210090009000a00f2100eb
:10560c0010007800808f500027003200a00f21007e
:10561c0020009000ec00b9008000780000402100d0
:10562c00808040000e007800b0187800a010780040
:10563c00e480400064004000b0187800a0107800ae
:10564c00e480400064004000b0187800a01078009e
:10565c00e480400064004000a00f21002000900076
:10566c008000e800a00f210021009800a00f21006d
:10567c00a0009000a00f210010007800808f500037
:10568c0003003a00a00f21008000eb0021009800dd
